:020000040800F2
:100000007806002061010008570A0008550A000818
:1000100000000000000000000000000000000000E0
:100020000000000000000000000000005B0A000863
:100030000000000000000000590A00085D0A0008E6
:1000400073010008730100087301000873010008C0
:1000500073010008730100087301000873010008B0
:1000600073010008730100087301000873010008A0
:100070007301000873010008730100087301000890
:1000800073010008730100080000000073010008FC
:100090007301000873010008730100087301000870
:1000A0007301000873010008730100087301000860
:1000B00073010008000000007301000800F002F85E
:1000C00000F03EF80CA030C8083824182D18671E20
:1000D000A246AB4654465D46AC4201D100F030F832
:1000E0007E460F3EB6460FCC0126334200D0FB1AA7
:1000F0003343A246AB4618476C0C00008C0C000042
:10010000103A02D378C878C1FAD8520701D330C860
:1001100030C101D504680C60704700000023002442
:1001200000250026103A01D378C1FBD8520700D32E
:1001300030C100D50B6070471FB51FBD10B510BD95
:1001400000F02DF81146FFF7F7FF00F08DFC00F0EE
:1001500045F803B4FFF7F2FF03BC00F04BF80000D2
:100160000748804707480047FEE7FEE7FEE7FEE74F
:10017000FEE7FEE704480549054A064B70470000C4
:10018000650A0008BD0000087800002078060020FD
:10019000780200207802002070477047704775464B
:1001A00000F024F8AE46050069465346C008C0007A
:1001B000854618B020B5FFF7DDFF60BCB6460026C7
:1001C0000027C0C5C0C5C0C5C0C5C0C5C0C5C0C565
:1001D000C0C5403D490849008D46704710B50446EA
:1001E000C046C0462046FFF7B4FF10BD0048704728
:1001F0001000002001491820ABBEFEE726000200D7
:1002000070470000B0B5044600F0F4F80546601CE5
:1002100002D095480078041900F0ECF8401BA04289
:10022000FAD3B0BDF0B58AB003900F68002F00D1AB
:10023000C3E06348039A824201D0052000E0032016
:10024000009000231A461C4608910BE03A43F260E6
:10025000079A641C0F683846E0409B1C121D00285A
:1002600000D1AAE001260596A6403740F1D00792BA
:10027000032002469A400293D34349680D46054045
:100280006A1E012A0693049113D80197039FB86848
:100290001840089AD268029B9A400243BA60C80686
:1002A000C00FA0407A68B2433E46019F024372608D
:1002B00006E0032D039E029B02D10546079A1EE02D
:1002C000F0680699084008998A689A400243F260EB
:1002D000022D079A13D11C2010400F218140E20803
:1002E0009200B218156A8D43089E316981402943F6
:1002F0001162079A7068039E0325049005409D4093
:100300003068069908402843306004988003800FC5
:1003100008999ED05F490868059D284308600868D1
:10032000284009900C2010400F22824003212546CE
:100330008D430999244EA9599143AD190922D2063A
:10034000039E96420CD0214A964206D0204A9642FD
:10035000009A1C4E06D1022204E01A4E059A01E0D2
:100360000022184E82400A432A60356808980146E8
:100370004068C2030FD53D433560756882030FD4D2
:10038000BD437560B568C2020FD4BD43B560F26865
:10039000800210D55AE7BD43356075688203EFD5FA
:1003A0003D437560B568C202EFD53D43B560F26864
:1003B000800200D54AE7BA4349E70AB0F0BDC0461B
:1003C000000C0048000401400800014000040048FF
:1003D0000008004842690B4693430A401104C918BB
:1003E00081617047002A02D018228150704728226C
:1003F00081507047054800687047C0461A48007829
:1004000002490A68101808607047C0467000002052
:1004100010B57D48016810220A430260002420467E
:1004200000F004F800F022F8204610BD70B5044634
:100430007D20C0000C4E317800F080FB01467A48E8
:10044000006800F07BFB00F0EBFA0125032C08D8D4
:10045000002806D10025E84321462A4600F01CF872
:100460007460284670BDC0460000002082B0094874
:100470000168012211430160016811400191019955
:10048000110742680A4342604068084000900098A3
:1004900002B0704718100240002805D4032203461A
:1004A00093430A4A9A1803E00C220240064BD218E2
:1004B0008007C00E8901C9B28140FF2383401068C4
:1004C000984308431060704714ED00E000E400E03A
:1004D000F0B581B000284FD004464B4A1368012084
:1004E00003408B4208D213680126B3430B431360C9
:1004F000126832408A4240D1009121688A07434BFA
:1005000011D54A0707D507221202404B1B68134337
:100510003E4A13603D4B1A68F0239A43A368134385
:100520003A4A1360394BC9072AD13749086801266E
:100530003040009A904205D90868B04308600868C6
:10054000C0071AD12078400706D507200002196895
:100550008143E0680843186019680C220A402D485E
:10056000082A18D18A02120F2B4B9C5C274B9A6ADF
:10057000C90332D42A4837E00126304601B0F0BD25
:1005800061681A1F022908D001290BD11268920351
:100590000646F2D50AE0044627E0126892010646B4
:1005A000EBD503E0126892070646E6D518680326E5
:1005B000B04308431860FFF71DFF0746144D134B67
:1005C00018680C210140606880008142ADD0FFF7BF
:1005D00011FFC01BA842F2D9CFE70F210A400F49F3
:1005E000895C00F0ABFA094B444318680006000F21
:1005F0000C49085CC4400C48046000263046FFF7F4
:1006000015FF304601B0F0BD00200240041002404A
:100610008813000000127A00420D0008520D0008F5
:1006200000093D00320D000808000020F0B587B039
:1006300004460120002C00D1EAE104902078C00794
:10064000F44E059426D071680C20014004291AD07C
:1006500071680140082902D17068C00313D4616831
:1006600001204704002900D184E1052900D198E147
:10067000012900D199E1010432688A433260810482
:100680003068884394E13068800303D560680028AF
:1006900000D1BDE0207880071AD570680007800F70
:1006A00007D070680C210140082975D17068C0031B
:1006B00072D430688007059C03D5E068012800D01B
:1006C000A6E03068F82188432169C9000143316000
:1006D000059C2078000724D42078400736D4207861
:1006E000C00600D4B4E005984069411D00D1A3E0E4
:1006F000012800D0F4E0706B042101437163706B3A
:10070000012101437163FFF775FE0546706B800799
:1007100000D595E0FFF76EFE411B03200229F5D9B5
:1007200076E1706AE169002960D0012108437062B6
:10073000FFF760FE0546706A8007CDD4FFF75AFECA
:10074000401B0228F7D9032007B0F0BD0120039019
:100750000107F0690840029006D1F0690843F06192
:10076000F0690840069006980191AB4F3868C005C3
:1007700028D403980402386820433860FFF73AFE13
:100780000546386820421DD1FFF734FE401B64281F
:10079000F7D9032007B0F0BD3068059CE168002957
:1007A00039D0012108433060FFF724FE0546306848
:1007B000800786D4FFF71EFE401B0228F7D90320CE
:1007C00007B0F0BD05988068944F002800D19CE0E8
:1007D000052800D1AEE0012800D1AFE0306A0399CE
:1007E00088433062306A04218843AAE001218843AB
:1007F0007062FFF7FFFD0546706A800700D46BE763
:10080000FFF7F8FD401B0228F6D9032007B0F0BD22
:10081000049807B0F0BD012188433060FFF7EAFD7E
:1008200005463068800700D452E7FFF7E3FD411B1F
:1008300003200229F5D9EBE0706B04218843706333
:10084000706BF821884305998969C9000143716378
:100850000598046A002C1ED070680C2101400829FC
:100860001CD1012C049800D1D2E00120030471684E
:100870000B40F26A059D6C6AA34200D0C8E00F23CA
:100880001A40EC6AA24200D0C2E09A041140AA6A5F
:10089000914200D0BCE0002007B0F0BD012002066C
:1008A00031680492914331604706FFF7A3FD054686
:1008B000022C0BD1049C3068384200D188E0FFF74D
:1008C00099FD411B03200229F5D9A1E03068384287
:1008D000E1D0FFF78FFD411B03200229F6D997E0F5
:1008E000706B042101437163706B01218843706355
:1008F000FFF780FD0546706B8007A9D5FFF77AFDED
:10090000411B03200229F6D982E0306A039988430B
:100910003062306A042188433062FFF76BFD054680
:10092000306A80071CD5FFF765FD411B0320B942E3
:10093000F6D96DE0306A042101433162306A0399CF
:1009400008433062FFF756FD0546306A800707D43A
:10095000FFF750FD401BB842F7D9032007B0F0BDA8
:1009600002980028059C00D0B9E6F06901998843F7
:10097000F061B4E6010432688A4332608004316871
:1009800081433160FFF736FD0546059C30683842EB
:1009900000D17FE6FFF72EFD411B03206429F5D926
:1009A00036E0810432680A4332600104306808434B
:1009B0003060FFF71FFD05463068384200D069E619
:1009C000FFF718FD401B6428F6D9032007B0F0BDDF
:1009D000F06A0F218843059AD16A0143F1623D20F4
:1009E000000471688143906A0843516A0143716051
:1009F000306820433060FFF7FDFC04463068384221
:100A000000D048E7FFF7F6FC011B03200229F5D9C7
:100A100007B0F0BD001002400070004088130000D5
:100A2000401E010E01D0012070470749074A50605F
:100A3000074803680B40032189075918016000200B
:100A40009060072111607047FFFFFF0010E000E099
:100A500020ED00E0FEE7FEE77047704780B5FFF746
:100A6000CDFC80BD7047000092B0FFF7D1FC0024A0
:100A70000A9409940D940C940B940894079411947F
:100A80000520C00410900F9402250E9506951020A5
:100A90000A900120099006A8FFF7C8FD002803D09E
:100AA000EFF3108072B6FEE70594049403950720D7
:100AB000029002A801252946FFF70AFD002803D06D
:100AC000EFF3108072B6FEE70A940994680419499E
:100AD0000A6802430A600A68024002920298E80427
:100AE0000A6802430A6009680140029102980320E3
:100AF00001020191104E30462246FFF773FC089424
:100B00000920410407910695C00606AF3946FFF754
:100B100089FB099408940795019806903046394658
:100B2000FFF780FB69023046FFF754FC6420FFF7B3
:100B300069FBF7E7141002400008004843088B42A5
:100B40001AD3002203098B4279D3030A8B425ED366
:100B5000030B8B4242D3030C8B4227D30902FF22A3
:100B600012BA030C8B4202D31212090203D0030BF8
:100B70008B4233D31AE0D3E0411A8041401C7047C6
:100B800003460B4371D443088B42F5D3002203097B
:100B90008B4254D3030A8B4239D3030B8B421DD3B0
:100BA000030C8B4202D394466EE0090AC30B8B42BE
:100BB00001D3CB03C01A5241830B8B4201D38B0369
:100BC000C01A5241430B8B4201D34B03C01A52410E
:100BD000030B8B4201D30B03C01A5241C30A8B4251
:100BE00001D3CB02C01A5241830A8B4201D38B023C
:100BF000C01A5241430A8B4201D34B02C01A5241E0
:100C0000030A8B4201D30B02C01A5241CDD2C30951
:100C10008B4201D3CB01C01A524183098B4201D3CD
:100C20008B01C01A524143098B4201D34B01C01AB8
:100C3000524103098B4201D30B01C01A5241C30830
:100C40008B4201D3CB00C01A524183088B4201D39F
:100C50008B00C01A524143088B4201D34B00C01A8B
:100C60005241411A524110007047CA0F00D0494208
:100C7000031000D34042534000229C4603098B429C
:100C80002DD3030A8B4212D38901FC2212BA030A24
:100C90008B420CD3890192118B4208D389019211A6
:100CA0008B4204D3890137D0921100E08909C3092E
:100CB0008B4201D3CB01C01A524183098B4201D32D
:100CC0008B01C01A524143098B4201D34B01C01A18
:100CD000524103098B4201D30B01C01A5241C30890
:100CE0008B4201D3CB00C01A524183088B4201D3FF
:100CF0008B00C01A5241D9D243088B4201D34B001A
:100D0000C01A5241411A00D2014652411046634670
:100D10005B1000D34042704763465B1000D34042F3
:100D200001B50021004201D0C9430846C046C04673
:100D300002BD0000000000000000010203040607DD
:100D4000080902030405060708090A0B0C0D0E0F1B
:100D500010100102030405060708090A0B0C0D0E0A
:100D60000F100000880D0008000000201000000097
:100D700000010008980D000810000020680600001F
:100D80001C01000800000000010000000400000039
:080D900000127A0000000000CF
:04000005080000BD32
:00000001FF
