:020000040800F2
:10000000D007002071010008A5150008A3150008FD
:1000100000000000000000000000000000000000E0
:10002000000000000000000000000000A91500080A
:100030000000000000000000A7150008AB15000834
:100040008301000883010008830100088301000880
:100050008301000883010008830100088301000870
:100060008301000883010008830100088301000860
:100070008301000883010008830100088301000850
:1000800083010008830100080000000083010008CC
:100090008301000883010008830100088301000830
:1000A000830100088301000883010008411A000849
:1000B00083010008000000008301000800F002F83E
:1000C00000F046F80CA030C8083824182D18671E18
:1000D000A246AB4654465D46AC4201D100F038F82A
:1000E0007E460F3EB6460FCC0126334200D0FB1AA7
:1000F0003343A246AB461847041D0000241D0000F0
:10010000103A02D378C878C1FAD8520701D330C860
:1001100030C101D504680C60704700000023002442
:1001200000250026103A01D378C1FBD8520700D32E
:1001300030C100D50B60704710B5732902D100F0B3
:100140001DF910BD002010BD1FB51FBD10B510BD9D
:1001500000F018F91146FFF7F7FF01F077FC00F007
:1001600030F903B4FFF7F2FF03BC00F037F90000E9
:100170000748804707480047FEE7FEE7FEE7FEE73F
:10018000FEE7FEE704480549054A064B70470000B4
:10019000B3150008BD000008D0010020D0070020E2
:1001A000D0030020D00300200FB41CB5074B06AAD3
:1001B0007B4469460090059800F0B5F80020694638
:1001C00000F0C4F81CBC08BC04B01847990100003A
:1001D000F8B50E460446002020622046E1688847B4
:1001E000002829D0252802D06268A16820E0E168B3
:1001F00020460027884705001ED028464138192888
:1002000002D80127FF0220353246204627602946C2
:10021000FFF792FF002808D0012804D0F61DF60849
:10022000F6000836D9E7361DD7E762682846A16888
:100230009047206A401CCFE7206AF8BD70B50C4695
:100240000546012A05D02878800600D5EA690023F2
:1002500002E0012305E05B1C934202D2E05C00282F
:10026000F9D1A869E618C01AA861286AC0182862DE
:100270002846C046C04604E06A682078A968641C25
:100280009047B442F8D32846C046C04670BD00002F
:1002900030B5441C03E00178401C00290DD08107D3
:1002A000F9D10B4BDD0104C8D11A91432940FAD092
:1002B000001B0A0603D0C01E30BD001B30BD0A045F
:1002C00001D0801E30BD0902FCD0401E30BD0000B0
:1002D0000101010101E004C0091F0429FBD28B07C1
:1002E00001D50280801CC90700D002707047002928
:1002F0000BD0C30702D00270401C491E022904D350
:10030000830702D50280801C891EE3E70022EEE706
:100310000022DFE7704770477047000001694A1C00
:1003200002610878704700B58FB0029100210591F5
:100330000549019379440391114604906846FFF7FB
:1003400047FF0FB000BD0000E5FFFFFF0A68107017
:10035000521C0A60704710B54369002B02D0C0469A
:10036000C04601E0FFF76AFF012010BD1278014688
:1003700024310A7000224A700122ECE71168002241
:10038000D243E8E7754600F025F8AE460500694619
:100390005346C008C000854618B020B5FFF7F2FEEE
:1003A00060BCB64600260027C0C5C0C5C0C5C0C5D4
:1003B000C0C5C0C5C0C5C0C5403D490849008D463F
:1003C000704710B50446C046C0462046FFF7C9FE38
:1003D00010BD00000048704710000020014918209F
:1003E000ABBEFEE726000200704710B50146203183
:1003F0004A78022A12D1026813680E24A3431360BC
:1004000013680124A3431360C26B006C234683402E
:1004100053604C70002000220A7010BD04228263D9
:10042000012000220A7010BDB0B5014620314A7883
:10043000022A16D1026813680E24A34313601368BE
:100440000125AB431360C26B036C2C469C40546087
:1004500000240C704D70416B002900D08847204665
:10046000B0BD042181630120B0BD0000B0B50446D9
:1004700000F0ECF80546601C02D0914800780419A1
:1004800000F0E4F8401BA042FAD3B0BDF0B58AB04A
:1004900003900F68002F00D1C3E06348039A8242A3
:1004A00001D0052000E00320009000231A461C46DE
:1004B00008910BE03A43F260079A641C0F683846D3
:1004C000E0409B1C121D002800D1AAE001260596E1
:1004D000A6403740F1D00792032002469A4002938B
:1004E000D34349680D4605406A1E012A06930491CC
:1004F00013D80197039FB8681840089AD268029BE6
:100500009A400243BA60C806C00FA0407A68B2435E
:100510003E46019F0243726006E0032D039E029B4C
:1005200002D10546079A1EE0F0680699084008992E
:100530008A689A400243F260022D079A13D11C2068
:1005400010400F218140E2089200B218156A8D43D5
:10055000089E3169814029431162079A7068039EA1
:100560000325049005409D403068069908402843C3
:10057000306004988003800F08999ED05B4908681A
:10058000059D284308600868284009900C20104009
:100590000F228240032125468D430999244EA959F3
:1005A0009143AD190922D206039E96420CD0214AEE
:1005B000964206D0204A9642009A1C4E06D102224C
:1005C00004E01A4E059A01E00022184E82400A43C8
:1005D0002A603568089801464068C2030FD53D433C
:1005E0003560756882030FD4BD437560B568C2027B
:1005F0000FD4BD43B560F268800210D55AE7BD4301
:10060000356075688203EFD53D437560B568C202F9
:10061000EFD53D43B560F268800200D54AE7BA43A2
:1006200049E70AB0F0BDC046000C00480004014094
:10063000080001400004004800080048002A02D0D9
:100640001822815070472822815070470548006861
:100650007047C0461A48007802490A6810180860B6
:100660007047C046C801002010B5CA480168102272
:100670000A4302600024204600F004F800F022F84B
:10068000204610BD70B504467D20C0000C4E317868
:1006900001F09CFA0146C748006801F097FA00F0A3
:1006A000ADFB0125032C08D8002806D10025E8431E
:1006B00021462A4600F028F87460284670BDC046DE
:1006C0000000002082B00948016801221143016046
:1006D0000168114001910199110742680A43426083
:1006E000406808400090009802B07047181002401F
:1006F000002805D41F2108400121814001480160E4
:100700007047C04600E100E0002805D403220346FC
:1007100093430A4A9A1803E00C220240064BD2186F
:100720008007C00E8901C9B28140FF238340106851
:10073000984308431060704714ED00E000E400E0C7
:10074000F0B585B004468078C007414B4FD00120FA
:10075000039001071A1F10680840029006D1106824
:1007600008431060106808400490049800920191BA
:10077000384E3068C00513D40398070230683843F8
:100780003060FFF763FF05463068384208D1FFF755
:100790005DFF401B6428F7D90325284605B0F0BD4E
:1007A000032528022A4B1968014012D062680240D2
:1007B00091420ED00398000419681A6802431A6027
:1007C0001A6882431A600846234A10401860C80716
:1007D00030D11868204908406168014319600298C7
:1007E000002804D1009A106801998843106020689D
:1007F000C10705D181060BD400254005CDD510E0F9
:10080000196903229143A2680A431A618106F3D54C
:10081000196910229143E2680A431A6100254005D4
:10082000BBD51869402188432169014319612846D5
:1008300005B0F0BDFFF70AFF0646574F044B186896
:100840008007C6D4FFF702FF801BB842F6D9A4E7A1
:100850002010024000700040FFFCFFFFF0B581B0A7
:1008600000284FD004464B4A1368012003408B42B6
:1008700008D213680126B3430B4313601268324059
:100880008A4240D1009121688A075A4B11D54A0704
:1008900007D507221202574B1B681343554A1360B2
:1008A000544B1A68F0239A43A3681343514A1360C8
:1008B000504BC9072AD13749086801263040009AB1
:1008C000904205D90868B04308600868C0071AD18B
:1008D0002078400706D50720000219688143E068A8
:1008E0000843186019680C220A404348082A18D1A6
:1008F0008A02120F414B9C5C3E4B9A6AC90332D468
:10090000404837E00126304601B0F0BD61681A1F4B
:10091000022908D001290BD1126892030646F2D5AC
:100920000AE0044627E0126892010646EBD503E090
:10093000126892070646E6D518680326B0430843B6
:100940001860FFF783FE0746134D2A4B18680C21E9
:100950000140606880008142ADD0FFF777FEC01B88
:10096000A842F2D9CFE70F210A402549895C01F05E
:100970002DF9204B444318680006000F0749085C16
:10098000C4400C48046000263046FFF77BFE30462A
:1009900001B0F0BD0020024088130000C21D000815
:1009A00004480068134909684905490F024A515C27
:1009B000C840704708000020D21D000810B50D493E
:1009C0000A680C2313400C48082B09D193021B0F13
:1009D0000A4CE45C896AD20303D40A4844432046A3
:1009E00010BD0F221140064A515C01F0EFF844435C
:1009F000204610BD0410024000127A00DA1D0008E3
:100A0000EA1D000800093D00F0B587B0044601204A
:100A1000002C00D1EAE104902078C007F44E059440
:100A200026D071680C20014004291AD07168014059
:100A3000082902D17068C00313D4616801204704FB
:100A4000002900D184E1052900D198E1012900D1D4
:100A500099E1010432688A43326081043068884336
:100A600094E13068800303D56068002800D1BDE0C0
:100A7000207880071AD570680007800F07D070684B
:100A80000C210140082975D17068C00372D4306808
:100A90008007059C03D5E068012800D0A6E03068F7
:100AA000F82188432169C90001433160059C207801
:100AB000000724D42078400736D42078C00600D41C
:100AC000B4E005984069411D00D1A3E0012800D0A1
:100AD000F4E0706B042101437163706B01210143E9
:100AE0007163FFF7B3FD0546706B800700D595E095
:100AF000FFF7ACFD411B03200229F5D976E1706AAE
:100B0000E169002960D0012108437062FFF79EFD72
:100B10000546706A8007CDD4FFF798FD401B022878
:100B2000F7D9032007B0F0BD012003900107F06959
:100B30000840029006D1F0690843F061F06908406E
:100B4000069006980191AB4F3868C00528D40398E9
:100B50000402386820433860FFF778FD054638689E
:100B600020421DD1FFF772FD401B6428F7D90320F6
:100B700007B0F0BD3068059CE168002939D001213B
:100B800008433060FFF762FD05463068800786D471
:100B9000FFF75CFD401B0228F7D9032007B0F0BD2A
:100BA00005988068944F002800D19CE0052800D16A
:100BB000AEE0012800D1AFE0306A0399884330628B
:100BC000306A04218843AAE0012188437062FFF75C
:100BD0003DFD0546706A800700D46BE7FFF736FDE0
:100BE000401B0228F6D9032007B0F0BD049807B0D7
:100BF000F0BD012188433060FFF728FD05463068CD
:100C0000800700D452E7FFF721FD411B0320022992
:100C1000F5D9EBE0706B042188437063706BF821A9
:100C2000884305998969C900014371630598046A7D
:100C3000002C1ED070680C21014008291CD1012C09
:100C4000049800D1D2E00120030471680B40F26ADD
:100C5000059D6C6AA34200D0C8E00F231A40EC6ADD
:100C6000A24200D0C2E09A041140AA6A914200D088
:100C7000BCE0002007B0F0BD0120020631680492FC
:100C8000914331604706FFF7E1FC0546022C0BD18A
:100C9000049C3068384200D188E0FFF7D7FC411B44
:100CA00003200229F5D9A1E030683842E1D0FFF7EE
:100CB000CDFC411B03200229F6D997E0706B04217B
:100CC00001437163706B012188437063FFF7BEFCC1
:100CD0000546706B8007A9D5FFF7B8FC411B0320C0
:100CE0000229F6D982E0306A039988433062306A7B
:100CF000042188433062FFF7A9FC0546306A80076B
:100D00001CD5FFF7A3FC411B0320B942F6D96DE0C7
:100D1000306A042101433162306A0399084330622A
:100D2000FFF794FC0546306A800707D4FFF78EFC76
:100D3000401BB842F7D9032007B0F0BD0298002845
:100D4000059C00D0B9E6F06901998843F061B4E6EA
:100D5000010432688A433260800431688143316023
:100D6000FFF774FC0546059C3068384200D17FE6E9
:100D7000FFF76CFC411B03206429F5D936E08104A0
:100D800032680A4332600104306808433060FFF77C
:100D90005DFC05463068384200D069E6FFF756FC36
:100DA000401B6428F6D9032007B0F0BDF06A0F217C
:100DB0008843059AD16A0143F1623D2000047168BD
:100DC0008143906A0843516A01437160306820434F
:100DD0003060FFF73BFC04463068384200D048E7FB
:100DE000FFF734FC011B03200229F5D907B0F0BD41
:100DF000001002400070004088130000401E010EE9
:100E000001D0012070470749074A5060074803682E
:100E10000B400321890759180160002090600721C9
:100E200011607047FFFFFF0010E000E020ED00E0E0
:100E30007047704770470000F0B589B00368DE69FD
:100E40001A682021089205910A4051425141012718
:100E5000FD022C462F3407963440203C661EB441D8
:100E60000C439E6860D002A98CC10690024658329D
:100E700001950F35079F2F42089807D0E34901409D
:100E8000012334461C40611800D097E0102301462E
:100E900019404C424C413D46394619404F424F4162
:100EA0000698016E01290498014643D1394600296C
:100EB000014642D0002943D02F46012399050E4018
:100EC00074427441E9020146039A00D52146002983
:100ED000069800D1F0E08021089A11404C424C4124
:100EE0003906049900D52146002900D182E1402528
:100EF000089929404C424C41790600D50494049944
:100F000000290FD1EFF3108183F310880268136872
:100F1000AB43136081F310880021816605998167D6
:100F200000F03EFB09B0F0BD416E0029FAD08847C1
:100F300009B0F0BD00290146BCD121460029BBD132
:100F4000039803628068400600D5BBE0548810888F
:100F50005288002A0699E5D0A042E3D00894EFF326
:100F60001084012282F3108809256D010E6837680C
:100F7000AF43376084F31088EFF3108482F3108856
:100F80000D68AE689643AE6084F31088059CCC670C
:100F900000244C660C66EFF3108482F310880A6814
:100FA00015689D43156084F31088089A801A82B2F0
:100FB00008461146FFF73CFF09B0F0BD1902014099
:100FC0004E424E41F9070498014600D031460029AF
:100FD000039D03D12B62916A194391626642664177
:100FE000B907014600D53146002905D10221296201
:100FF000916A04260E43966266426641790701466D
:1010000000D53146002905D104212962916A0226C2
:101010000E43966202990C436642664139070446C4
:1010200000D53446002C04D108212962946A0C436F
:1010300094629906089E0E407442744101990F42D1
:10104000069E0CD020463C4600280BD12962916AAE
:10105000059801439162916A002907D162E73C46F5
:101060000028F3D0916A002900D15BE71746059864
:10107000214601400298444244410029049800D08E
:10108000204600283C4608D1716E002905D0304624
:101090001C46884723463C463568A16A28220A40F8
:1010A000A9684020014089185CD13046FFF7C2FE94
:1010B0000020A06209B0F0BD19051162FFF7B9FE6A
:1010C00009B0F0BD1746069E316F0868426894B2B9
:1010D000002C00D126E73888844200D322E73C4622
:1010E0007A803A468969202934D0EFF310810120B3
:1010F00080F31088474A20323468256815402560FF
:1011000081F31088EFF3108180F3108832689468BF
:101110008443946081F31088EFF3108180F310888A
:10112000326894684025AC43946081F31088059937
:10113000F16700213166EFF3108180F31088306889
:1011400002689A43026081F31088306FFFF74DF90F
:101150003A4638885188401A81B23046FFF768FE17
:1011600009B0F0BDEFF3108183F31088092252011A
:101170001F4633681C6894431C6081F31088EFF3AA
:10118000108187F31088326893683D46BB439360B3
:1011900081F31088316E01290AD1EFF3108185F3B4
:1011A0001088326813681024A343136081F31088F9
:1011B0000599F167002131667166316889684906D1
:1011C0001FD5EFF3108185F310883268936883434D
:1011D000936081F31088306F002812D00C4941636E
:1011E000FFF722F9002800D19CE6306F416B884759
:1011F00009B0F0BD816E002900D193E6884709B09F
:10120000F0BD3046FFF716FE09B0F0BD2001000426
:1012100087160008DFFEFFFFF0B583B0002841D03D
:10122000044607467437806F002804D100203870C8
:10123000204600F057F82420A067206801680125A7
:10124000A9430160204600F0CBFA012827D0606A4C
:10125000002802D0204600F0ADF90920C002216824
:101260004A6882434A6088682A22904388600868F6
:101270000126304308600025FD60FFF7E7F90346CB
:1012800020680168090713D51548009071050022F0
:101290002046029300F038FB002807D0032528469B
:1012A00003B0F0BD0125284603B0F0BD2068029BC5
:1012B000006840070CD50A480090B105002220467E
:1012C00000F022FB002803D00325284603B0F0BD20
:1012D0002020A067E0673D702566284603B0F0BD7A
:1012E000FFFFFF01B0B586B000686C49884201D0AD
:1012F00006B0B0BD15484168012205929303194319
:1013000041604168194000910099510402680A4304
:1013100002600068084000900024039402200290BC
:10132000032004904002019000980920C00601A902
:10133000FFF7ACF81B25284621462246FFF7E4F9C3
:101340002846FFF7D5F906B0B0BDC04614100240DC
:10135000F0B584B0C36F0227202B11D101230029DF
:1013600018D0002A16D00124250383680395AB42C8
:101370000AD1CB0708D00369002B05D1234609E029
:101380003B46184604B0F0BD054658352B7F012B6F
:101390003B4602D1184604B0F0BD002303662C770B
:1013A00007687F683F0210D5EFF31087029784F338
:1013B0001088A6060196066800963768019E374396
:1013C000009E3760029F87F310886A802A804165FB
:1013D00043668168002907D0039A914209D10169C7
:1013E000002908D16D4907E00169002903D07F2158
:1013F00002E0AB8001E0FF21A980AB622221C1673E
:10140000EFF3108184F31088026897682743976090
:1014100081F310888168039A914202D10169002901
:1014200011D00B492B774166EFF3108184F31088BC
:1014300009225201006804681443046081F3108893
:10144000184604B0F0BD0149ECE7C0469D160008FF
:101450003D170008B0B500681049884200D0B0BD03
:101460000F4C2578002D06D0A0780D280BD1012037
:10147000000220800BE020460C306421FEF748FF7C
:10148000A0780D28F3D061190873681C2070A11C86
:1014900004480122FFF75CFFB0BDC04600380140A0
:1014A0007000002044010020F0B587B017460646C2
:1014B000826F0220202A19D10125002913D0002F84
:1014C00011D001252C03B268A24204D1CA0702D070
:1014D0003269002A07D00695039434467434227882
:1014E000012A054606D1284607B0F0BD0546284624
:1014F00007B0F0BD049105932046344650340025D2
:10150000C5600290069901702120B067FFF79EF830
:10151000069067802780B0680399884202D13069BD
:10152000002802D0049F049500E000270599029846
:1015300005700BE0049A1188184B19400185921C24
:1015400004922F4605996088401E608060880028BC
:1015500010D000918021002530462A46069B00F0DD
:10156000D3F9002810D13068002FE3D039780185F5
:101570007F1CE7E700914021002530462A46069B64
:1015800000F0C2F9002803D00325284607B0F0BDBB
:101590002020B067284607B0F0BDC046FF0100001C
:1015A0007047FEE7FEE77047704780B5FFF752F8D7
:1015B00080BD7047B0B5416ACA070CD18A0714D400
:1015C0004A071CD40A0724D4CA062CD48A0634D469
:1015D0004A063CD44CE00122520403685C68944300
:1015E000826A22435A608A07EAD5012212040368FC
:1015F0005C689443C26A22435A604A07E2D50122DA
:10160000920403685C689443026B22435A600A07A1
:10161000DAD50122D20303685C689443426B22430B
:101620005A60CA06D2D50122120303689C6894430B
:10163000826B22439A608A06CAD50122520303684C
:101640009C689443C26B22439A604A0610D50122DB
:101650001305026854689C43056C2C4354609D42FA
:1016600006D103235B0554689C43436C23435360BA
:10167000090607D50121C904026853688B43806CB1
:1016800018435060B0BD80B5406A01465231002217
:101690000A8152214252FFF7CDFB80BD70B502682E
:1016A000014658318B88C46F222C0CD1928C1A4081
:1016B000436D1A804A88521E4A809A1C42654A88A5
:1016C000002A05D070BD906908210143916170BD69
:1016D000EFF31083012282F3108809246401056866
:1016E0002E68A6432E6083F31088EFF3108382F3F5
:1016F00010880468A5689543A56083F310882023AB
:10170000C36700234366046E012C14D10366EFF314
:10171000108382F3108804682568102295432560A1
:1017200083F310880368DC69E40600D51A6209882F
:10173000FFF77EFB70BDFFF78DFE70BD70B50268D0
:10174000014658318B88C46F222C0DD1928C1A40DF
:10175000436D1A704A88521E4A80426D521C42657F
:101760004A88002A05D070BD906908210143916123
:1017700070BDEFF31083012282F310880924640105
:1017800005682E68A6432E6083F31088EFF310835C
:1017900082F310880468A5689543A56083F31088D8
:1017A0002023C36700234366046E012C14D1036613
:1017B000EFF3108382F310880468256810229543A4
:1017C000256083F310880368DC69E40600D51A629B
:1017D0000988FFF72DFB70BDFFF73CFE70BD0000D0
:1017E000B0B50446006801683D4A0A40A168236913
:1017F0000B4365691D431543E1690D4305600322F1
:10180000120343689343E2681A434260A269236A61
:1018100013430B221202856895431D438560314AAC
:10182000904209D0304A904208D130480068800781
:10183000000F2FA2135802E0002300E0102301251F
:10184000EA032F4891420FD1082B43D87B441B79E0
:101850005B009F44043F203F193F3F3F1F00FFF7BD
:101860009FF8002817D113E0082B33D87B441B794D
:101870005B009F44042F242F1D2F2F2F2300FFF7E1
:101880008FF800281BD117E0FFF798F8002802D145
:1018900000251FE01046400061684A08101800F05B
:1018A00095F91849014015D00007400F08430EE094
:1018B000FFF784F8002802D100250BE0104661688C
:1018C0004A08101800F082F980B2102802D321686B
:1018D000C860002500206066A0662846B0BDC046EE
:1018E000F369FFFF0044004000380140301002401F
:1018F00000000000040000000800000002000000DA
:1019000000127A00F0FF0000F0B587B016460F46CF
:1019100005460468E1693940C91B4A424A41002032
:10192000B24224D1069304952A4674320C9D002DB0
:101930001FD0691C43D1E1693940C91B4A424A4161
:10194000B24214D1E1693940C91B4A424A41B2420C
:101950000DD1E1693940C91B4A424A41B24206D120
:10196000E1693940C91B4A424A41B242E3D007B05B
:10197000F0BD0392FEF76AFE049CEFF31081012094
:1019800080F310880D22520123681D6895431D6065
:1019900081F31088EFF3108180F310882268936838
:1019A0008343936081F310882020A0677C340399DF
:1019B0000020087020202060032007B0F0BD0392B3
:1019C000029001200190C0020590049C06E0C069CD
:1019D0003840C01B41424141B1422DD1FEF736FE95
:1019E0000699401AA842C8D8206801684907EED570
:1019F000C169059A1142EAD005990162EFF310809E
:101A0000019D85F310880D214901226813688B43DD
:101A1000136080F31088EFF3108085F3108821683D
:101A20008A68AA438A6080F310882020A067E06754
:101A300003990C460C34BBE7029807B0F0BD0000D8
:101A400080B55C48FFF7F8F980BDC04696B0FEF758
:101A50000BFE00250E950D95119510950F950C9583
:101A60000B9515950520C00414901395022412942B
:101A70000A9410200E9001200D9005950495039571
:101A800002950AA8FEF7C0FF002803D0EFF31080EC
:101A900072B6FEE70995089507940720069006A8F8
:101AA00001263146FEF7DAFE002803D0EFF310805E
:101AB00072B6FEE70395019601A8FEF741FE0028E5
:101AC00003D0EFF3108072B6FEE70E950D9570040B
:101AD00036490A6802430A600A6802400192019886
:101AE000F0040A6802430A60096801400191019804
:101AF000032007022E4839462A46FEF79FFD0C9523
:101B0000092041040B910A96C0060AAC2146FEF753
:101B1000BDFC0D950C950B960A9725482146FEF7BE
:101B2000B5FC24480C214B22D201234B03604260B8
:101B30008560C560056141618561C5610562456279
:101B4000FFF76AFB002803D0EFF3108072B6FEE7C0
:101B500000951A4DA91C174801242246FFF7F8FBEF
:101B60006878002821D0164E0099002C0C46FCD035
:101B70002A460C32304613A1FEF716FB3046FEF71C
:101B800087FBA8603B46E83382B20A483146FFF73C
:101B90008BFC002068707D208000FEF767FC0099B8
:101BA0006868401C68606C78DFE7FEE7141002404C
:101BB0000008004844010020003801407000002067
:101BC000E000002025730D0A0000000043088B424E
:101BD0001AD3002203098B4279D3030A8B425ED3C6
:101BE000030B8B4242D3030C8B4227D30902FF2203
:101BF00012BA030C8B4202D31212090203D0030B58
:101C00008B4233D31AE0D3E0411A8041401C704725
:101C100003460B4371D443088B42F5D300220309DA
:101C20008B4254D3030A8B4239D3030B8B421DD30F
:101C3000030C8B4202D394466EE0090AC30B8B421D
:101C400001D3CB03C01A5241830B8B4201D38B03C8
:101C5000C01A5241430B8B4201D34B03C01A52416D
:101C6000030B8B4201D30B03C01A5241C30A8B42B0
:101C700001D3CB02C01A5241830A8B4201D38B029B
:101C8000C01A5241430A8B4201D34B02C01A52413F
:101C9000030A8B4201D30B02C01A5241CDD2C309B1
:101CA0008B4201D3CB01C01A524183098B4201D32D
:101CB0008B01C01A524143098B4201D34B01C01A18
:101CC000524103098B4201D30B01C01A5241C30890
:101CD0008B4201D3CB00C01A524183088B4201D3FF
:101CE0008B00C01A524143088B4201D34B00C01AEB
:101CF0005241411A524110007047CA0F00D0494268
:101D0000031000D34042534000229C4603098B42FB
:101D10002DD3030A8B4212D38901FC2212BA030A83
:101D20008B420CD3890192118B4208D38901921105
:101D30008B4204D3890137D0921100E08909C3098D
:101D40008B4201D3CB01C01A524183098B4201D38C
:101D50008B01C01A524143098B4201D34B01C01A77
:101D6000524103098B4201D30B01C01A5241C308EF
:101D70008B4201D3CB00C01A524183088B4201D35E
:101D80008B00C01A5241D9D243088B4201D34B0079
:101D9000C01A5241411A00D20146524110466346D0
:101DA0005B1000D34042704763465B1000D3404253
:101DB00001B50021004201D0C9430846C046C046D3
:101DC00002BD00000000000000000102030406073D
:101DD00008090000000001020304020304050607CD
:101DE00008090A0B0C0D0E0F101001020304050662
:101DF0000708090A0B0C0D0E0F100000201E00082A
:101E0000000000201000000000010008301E000843
:101E100010000020C00700001C01000800000000A6
:101E2000010000000400000000127A000000000021
:04000005080000BD32
:00000001FF
