:020000040800F2
:1000000068080020710100085D1D00085B1D0008E4
:1000100000000000000000000000000000000000E0
:10002000000000000000000000000000611D00084A
:1000300000000000000000005F1D0008631D0008B4
:100040008301000883010008830100088301000880
:100050008301000883010008830100088301000870
:100060008301000883010008830100088301000860
:100070008301000883010008830100088301000850
:1000800083010008830100080000000083010008CC
:100090008301000883010008830100088301000830
:1000A000830100088301000883010008F92100088A
:1000B00083010008000000008301000800F002F83E
:1000C00000F046F80CA030C8083824182D18671E18
:1000D000A246AB4654465D46AC4201D100F038F82A
:1000E0007E460F3EB6460FCC0126334200D0FB1AA7
:1000F0003343A246AB461847A8240000C82400009A
:10010000103A02D378C878C1FAD8520701D330C860
:1001100030C101D504680C60704700000023002442
:1001200000250026103A01D378C1FBD8520700D32E
:1001300030C100D50B6070471FB50098019900F0E1
:1001400028FC00F065F91FBD10B500F0CDF910BD19
:1001500000F02FFA1146FFF7EFFF02F053F800F01E
:10016000E7FB03B4FFF7F0FF03BC00F003FD000062
:100170000748804707480047FEE7FEE7FEE7FEE73F
:10018000FEE7FEE704480549054A064B70470000B4
:100190006B1D0008BD0000086802002068080020F0
:1001A000680400206804002010B5044603E002F053
:1001B000C4F9401C08D020780549641C0028F6D1F9
:1001C0000A2002F0BAF910BD0020C04310BD0000A3
:1001D0006C00002001E004C0091F0429FBD28B073A
:1001E00001D50280801CC90700D002707047002929
:1001F0000BD0C30702D00270401C491E022904D351
:10020000830702D50280801C891EE3E70022EEE707
:100210000022DFE77047704770470000F7B50546DA
:100220000C46C8680521C904884301218905084393
:10023000E060800602D5204600F0B9FA7249E06815
:100240000140022903D0204600F050FABEE005210B
:10025000012249030140D20391420FD1C00306D5C8
:100260006168E06A884200D80846606006E020695C
:10027000E0626060606900F096F9A061A168002208
:10028000EEB200290EDAE06883050BD4C943A16001
:100290000921226049030843E0606068411C6160F5
:1002A0000670AEE0E068012149030843E0600020E9
:1002B00020602069002831D1606900F066F90125CD
:1002C00027462437ED02002816D0A0898005800F2C
:1002D00008D0E06900F08CF90028206102D0E068C5
:1002E000284318E001202761E061E068032109024A
:1002F0008843012189020DE0E06900F079F90028C6
:100300002061EFD0E0682843E0608105890F03D1C8
:10031000FF2101310843E06020696060E2683B4FE3
:100320002569D00520D56168E06A884200D8084672
:10033000411B05D02246284600F0E2F9002845D1AD
:100340000298002804D0E56200206560A06055E0B6
:10035000681CE0626060E069401EA060E0683843AD
:10036000E06030462E70FEBD0298002801D03A4071
:1003700009E06068411C61600670E06838430A2E3D
:10038000E06006D00022E16A6068814203D90B4632
:1003900002E00122F7E70346A7895B1B7F0504D42F
:1003A000E7699F4201DD002A1ED0814200D8014644
:1003B0000F1A0020E5626560002BA06009DD22466F
:1003C0001946284600F09CF9002802D00020C043BE
:1003D000FEBD002F08D0A069E5626560C01BA0616A
:1003E000E06810210843E0600298002809D06168A5
:1003F000A069E562491B40186560A0610120C04307
:10040000FEBD3046FEBD000082100000000001006D
:1004100010B543485421FFF7FBFE42485421FFF733
:10042000F7FE41485421FFF7F3FE40483C493D4B5D
:10043000404A01603E4803603B4810605A1C0A6510
:10044000411C1965012101653C48354A3AA17844AF
:1004500000F0D2F9002804D1384878440C3800F074
:100460006FFA38482F4A36A1784400F0C5F90028C1
:1004700004D1344878440C3800F062FA32482A4AF1
:100480002FA1784400F0B8F9002804D12E48784410
:100490000C3800F055FA40232148DC0000212246A8
:1004A00000F0FEF8002804D0244878445C3800F0BE
:1004B00047FA1C4822464023002100F0F1F80028AA
:1004C00004D0204878445C3800F03AFA16482246B6
:1004D0001023002100F0E4F8002804D01A487844E2
:1004E0005C3800F02DFA10BD0F4870B5006D44085F
:1004F0000B48640000F0F8F90A4800F0F5F90A48E2
:1005000000F0F2F909E0206D450820466D0000F08A
:10051000EBF9204600F09DF82C46002CF3D170BD7D
:10052000180000206C000020C00000200000002007
:1005300004000020080000207200000008210000D4
:1005400077000000F2200000DC2000000EB50191D1
:10055000009000F0EDFA029069460120ABBE0EBD9E
:1005600008B5694600900220ABBE08BD1FB56B46BA
:1005700007C369460520ABBE04B010BD1FB56C466D
:100580000FC469460620ABBEF6E708B56946009081
:100590000920ABBE08BD1CB500900A200191694638
:1005A000ABBE1CBD704708B5694600900C20ABBEC1
:1005B00008BD754600F0CAF9AE46050069465346C7
:1005C000C008C000854618B020B5FFF7DBFD60BC51
:1005D000B64600260027C0C5C0C5C0C5C0C5C0C539
:1005E000C0C5C0C5C0C5403D490849008D467047DB
:1005F00070B5064600F0B0F9056830460B30C40807
:10060000E400B44201D8002070BD68682A46002882
:1006100018D00168A14211D30B46214608318B4204
:1006200008D3436801194B6003681B1B0B605160C2
:10063000046001E041685160001D70BD02464068E1
:100640000028E6D12146284600F08EF90028DCD1AA
:1006500070BD70B50446051F00F07EF90068002CDF
:100660001AD0446801E020466468002C01D0AC42F6
:10067000F9D301680A18AA4204D12A6805468918E4
:10068000016000E0456028684119A14205D1616818
:10069000696021684018286070BD6C6070BD000002
:1006A00070B5C468A50713D0650211D4D51FF93DF4
:1006B0000AD0FF3D6D1E07D0FF3DFF3D022D07D143
:1006C00001462431012305E0074E5D1EB54201D3EA
:1006D000012070BD0161C36141600F2109028C439B
:1006E0001443C460002070BDFFFFFF00C16880227A
:1006F000114392039143C160002181600160704702
:10070000F7B515460C4682B0506900903748D76857
:10071000074209D0A9690098FFF73DFF002815DBC3
:100720003248C0430740EF60314EB44200D82646FD
:100730003B46324602990098FFF718FF4200A9692C
:100740005208B21A89180028A96106D02846FFF776
:10075000CDFF0020C04305B0F0BDA41BE4D10020B4
:10076000F9E770B504460569C06A6168884200D837
:100770000846E1680522D2049143E160C90314D51B
:10078000A84209D02246411B2846FFF7B9FF00289E
:1007900002D00020C04370BDE56200206560A0600B
:1007A000E068012109048843E060002070BD10B5B5
:1007B0000446C06820218843E060A16AA06988429D
:1007C0000ED02046FFF7CDFFE068032109038843E0
:1007D00010210843E060A06AA0612069E0626060C7
:1007E0000449E0680840E06010BD0000100002000D
:1007F000FFFFFF7FBFBFFFFFF7B516460C4600980F
:10080000002843D0104600F06FF82078611C612862
:100810000AD0722802D0772839D102E001250024BD
:1008200004E00225042401E02D4D082402220323C4
:1008300001270878491C2B2806D0622807D02039C8
:10084000C87F742807D008E01D431443F1E7042053
:1008500005433C43EDE71020044300982146FFF791
:1008600075FE411C13D00021316171600121F560DA
:100870004902F1617061200704D53046022200214F
:1008800000F0BCF8306D384330653046FEBD0020C6
:10089000FEBDF8B50D460646124C206DC10704D0CA
:1008A000410804D044086400F7E7224610E05420D1
:1008B000FFF79EFE070010D07908206D4900012245
:1008C00011430843542120653846FFF7A1FC3A46FE
:1008D00029463046FFF790FFF8BD0020F8BD000024
:1008E0000280000018000020F8B504460026476981
:1008F00000690090E568A80717D02046FFF731FF90
:100900003846FFF72DFE002800DA761E280502D5AE
:100910000098FFF79EFE4C212046FFF779FC206DE2
:100920004008400020653046F8BD0020C043F8BDB7
:1009300010B50446C046C0462046FFF712FC10BD65
:1009400010B500F0DBF800F0D3F810BD0048704798
:100950001401002070470000004870471C0100206F
:10096000704770477047704738B504460A46002004
:100970006946C046C046002805D002462046009978
:1009800000F0FEF8012038BD10B5012000F04DF94F
:1009900010BDF8B5C046C046054600200C461020E4
:1009A000C0460646A819A0420DD932466946002025
:1009B000C046C046070001D100F037F90098A042B8
:1009C00000D00546C419FFF7C7FFF61D07460560AE
:1009D000F008C0004619284600F008F8B44204D0D8
:1009E00031463868A21B00F0CBF8F8BD0021016049
:1009F000416080607047102070470000F8B50446E1
:100A000016460D464769007B800730D03846FFF711
:100A1000BCFD00282BD132461026002A25D0012A01
:100A200002D0022A23D104E0204600F0C3F8451981
:100A30001BE03846FFF7B7FDE16831430028E1606D
:100A400004DA2046FFF752FE0120F8BDC9030BD59A
:100A50006268E16A914200D81146A2698918226948
:100A6000891A814200DD08462D18002D01DA022086
:100A7000F8BDE16A6068E268814206D29103E062F3
:100A800003D5012149048A433243A669AE4211DCF1
:100A9000E16A814201D90B4600E003469F192369B0
:100AA000FF1AAF4206DD814201D90F4600E007463A
:100AB0009F4206D1202002430020A060A562206052
:100AC0000DE0AD1BE669AE1B8142A66000D9084669
:100AD000C01A281A206058196060202082430348F9
:100AE00002400020E26040342072F8BDBFCFD7FF43
:100AF00010B5002801D000F03DF810BD10B501463A
:100B000002A000F078F8012010BD000053494752C0
:100B1000545245443A2052656469726563743A20C0
:100B200063616E2774206F70656E3A2000000000CC
:100B300030B5441C03E00178401C00290DD081072A
:100B4000F9D10B4BDD0104C8D11A91432940FAD0E9
:100B5000001B0A0603D0C01E30BD001B30BD0A04B6
:100B600001D0801E30BD0902FCD0401E30BD000007
:100B70000101010101491820ABBEFEE72600020079
:100B800010B50346406801E003464068002801D0E4
:100B90008842F9D31868C3188B4206D0CB1CD808FA
:100BA000C000001D411A521A0146081D0A60FFF7D5
:100BB00050FD10BD10B50146C268900703D09006E5
:100BC00007D5886A0AE000F03DF801210160881E1F
:100BD00010BD8B694868C0180B69C01A40310B7A88
:100BE000002B02D0497A401A10BD1103FCD5002811
:100BF000FADD401E10BD70B505460C460A2000E027
:100C00006D1C00F018F8002D06D028780028F7D1C8
:100C100002E0641C00F00FF8002C02D020780028BD
:100C2000F7D10A2000F007F870BD10B500F00EF8FB
:100C3000FFF75EFF10BD08B5694608700320ABBE24
:100C400008BD0000004870471401002010B50128BD
:100C500005D0002103A0FFF7CEFF012010BD09A1A0
:100C6000F8E7000053494752544D454D3A204F751F
:100C700074206F662068656170206D656D6F727994
:100C8000000000003A2048656170206D656D6F724C
:100C90007920636F727275707465640010B50146D7
:100CA00020314A78022A12D1026813680E24A34325
:100CB000136013680124A3431360C26B006C2346C6
:100CC000834053604C70002000220A7010BD042243
:100CD0008263012000220A7010BDB0B501462031A8
:100CE0004A78022A16D1026813680E24A3431360BF
:100CF00013680125AB431360C26B036C2C469C4008
:100D0000546000240C704D70416B002900D088475E
:100D10002046B0BD042181630120B0BDB0B50446BA
:100D200000F0ECF80546601C02D0914800780419E8
:100D300000F0E4F8401BA042FAD3B0BDF0B58AB091
:100D400003900F68002F00D1C3E06348039A8242EA
:100D500001D0052000E00320009000231A461C4625
:100D600008910BE03A43F260079A641C0F6838461A
:100D7000E0409B1C121D002800D1AAE00126059628
:100D8000A6403740F1D00792032002469A400293D2
:100D9000D34349680D4605406A1E012A0693049113
:100DA00013D80197039FB8681840089AD268029B2D
:100DB0009A400243BA60C806C00FA0407A68B243A6
:100DC0003E46019F0243726006E0032D039E029B94
:100DD00002D10546079A1EE0F06806990840089976
:100DE0008A689A400243F260022D079A13D11C20B0
:100DF00010400F218140E2089200B218156A8D431D
:100E0000089E3169814029431162079A7068039EE8
:100E10000325049005409D4030680699084028430A
:100E2000306004988003800F08999ED05B49086861
:100E3000059D284308600868284009900C20104050
:100E40000F228240032125468D430999244EA9593A
:100E50009143AD190922D206039E96420CD0214A35
:100E6000964206D0204A9642009A1C4E06D1022293
:100E700004E01A4E059A01E00022184E82400A430F
:100E80002A603568089801464068C2030FD53D4383
:100E90003560756882030FD4BD437560B568C202C2
:100EA0000FD4BD43B560F268800210D55AE7BD4348
:100EB000356075688203EFD53D437560B568C20241
:100EC000EFD53D43B560F268800200D54AE7BA43EA
:100ED00049E70AB0F0BDC046000C004800040140DC
:100EE000080001400004004800080048002A02D021
:100EF00018228150704728228150704705480068A9
:100F00007047C0461A48007802490A6810180860FD
:100F10007047C0466002002010B5CA480168102220
:100F20000A4302600024204600F004F800F022F892
:100F3000204610BD70B504467D20C0000C4E3178AF
:100F400001F000FA0146C748006801F0FBF900F023
:100F5000ADFB0125032C08D8002806D10025E84365
:100F600021462A4600F028F87460284670BDC04625
:100F70000C00002082B00948016801221143016081
:100F80000168114001910199110742680A434260CA
:100F9000406808400090009802B070471810024066
:100FA000002805D41F21084001218140014801602B
:100FB0007047C04600E100E0002805D40322034644
:100FC00093430A4A9A1803E00C220240064BD218B7
:100FD0008007C00E8901C9B28140FF238340106899
:100FE000984308431060704714ED00E000E400E00F
:100FF000F0B585B004468078C007414B4FD0012042
:10100000039001071A1F10680840029006D110686B
:101010000843106010680840049004980092019101
:10102000384E3068C00513D403980702306838433F
:101030003060FFF763FF05463068384208D1FFF79C
:101040005DFF401B6428F7D90325284605B0F0BD95
:10105000032528022A4B1968014012D06268024019
:1010600091420ED00398000419681A6802431A606E
:101070001A6882431A600846234A10401860C8075D
:1010800030D118682049084061680143196002980E
:10109000002804D1009A10680199884310602068E4
:1010A000C10705D181060BD400254005CDD510E040
:1010B000196903229143A2680A431A618106F3D594
:1010C000196910229143E2680A431A61002540051C
:1010D000BBD518694021884321690143196128461D
:1010E00005B0F0BDFFF70AFF0646574F044B1868DE
:1010F0008007C6D4FFF702FF801BB842F6D9A4E7E9
:101100002010024000700040FFFCFFFFF0B581B0EE
:1011100000284FD004464B4A1368012003408B42FD
:1011200008D213680126B3430B43136012683240A0
:101130008A4240D1009121688A075A4B11D54A074B
:1011400007D507221202574B1B681343554A1360F9
:10115000544B1A68F0239A43A3681343514A13600F
:10116000504BC9072AD13749086801263040009AF8
:10117000904205D90868B04308600868C0071AD1D2
:101180002078400706D50720000219688143E068EF
:101190000843186019680C220A404348082A18D1ED
:1011A0008A02120F414B9C5C3E4B9A6AC90332D4AF
:1011B000404837E00126304601B0F0BD61681A1F93
:1011C000022908D001290BD1126892030646F2D5F4
:1011D0000AE0044627E0126892010646EBD503E0D8
:1011E000126892070646E6D518680326B0430843FE
:1011F0001860FFF783FE0746134D2A4B18680C2131
:101200000140606880008142ADD0FFF777FEC01BCF
:10121000A842F2D9CFE70F210A402549895C01F0A5
:1012200091F8204B444318680006000F0749085CFA
:10123000C4400C48046000263046FFF77BFE304671
:1012400001B0F0BD002002408813000066250008B0
:1012500004480068134909684905490F024A515C6E
:10126000C8407047140000207625000810B50D49CD
:101270000A680C2313400C48082B09D193021B0F5A
:101280000A4CE45C896AD20303D40A4844432046EA
:1012900010BD0F221140064A515C01F053F844433F
:1012A000204610BD0410024000127A007E2500087E
:1012B0008E25000800093D00F0B587B004460120E6
:1012C000002C00D1EAE104902078C007F44E059488
:1012D00026D071680C20014004291AD071680140A1
:1012E000082902D17068C00313D461680120470443
:1012F000002900D184E1052900D198E1012900D11C
:1013000099E1010432688A4332608104306888437D
:1013100094E13068800303D56068002800D1BDE007
:10132000207880071AD570680007800F07D0706892
:101330000C210140082975D17068C00372D430684F
:101340008007059C03D5E068012800D0A6E030683E
:10135000F82188432169C90001433160059C207848
:10136000000724D42078400736D42078C00600D463
:10137000B4E005984069411D00D1A3E0012800D0E8
:10138000F4E0706B042101437163706B0121014330
:101390007163FFF7B3FD0546706B800700D595E0DC
:1013A000FFF7ACFD411B03200229F5D976E1706AF5
:1013B000E169002960D0012108437062FFF79EFDBA
:1013C0000546706A8007CDD4FFF798FD401B0228C0
:1013D000F7D9032007B0F0BD012003900107F069A1
:1013E0000840029006D1F0690843F061F0690840B6
:1013F000069006980191AB4F3868C00528D4039831
:101400000402386820433860FFF778FD05463868E5
:1014100020421DD1FFF772FD401B6428F7D903203D
:1014200007B0F0BD3068059CE168002939D0012182
:1014300008433060FFF762FD05463068800786D4B8
:10144000FFF75CFD401B0228F7D9032007B0F0BD71
:1014500005988068944F002800D19CE0052800D1B1
:10146000AEE0012800D1AFE0306A039988433062D2
:10147000306A04218843AAE0012188437062FFF7A3
:101480003DFD0546706A800700D46BE7FFF736FD27
:10149000401B0228F6D9032007B0F0BD049807B01E
:1014A000F0BD012188433060FFF728FD0546306814
:1014B000800700D452E7FFF721FD411B03200229DA
:1014C000F5D9EBE0706B042188437063706BF821F1
:1014D000884305998969C900014371630598046AC5
:1014E000002C1ED070680C21014008291CD1012C51
:1014F000049800D1D2E00120030471680B40F26A25
:10150000059D6C6AA34200D0C8E00F231A40EC6A24
:10151000A24200D0C2E09A041140AA6A914200D0CF
:10152000BCE0002007B0F0BD012002063168049243
:10153000914331604706FFF7E1FC0546022C0BD1D1
:10154000049C3068384200D188E0FFF7D7FC411B8B
:1015500003200229F5D9A1E030683842E1D0FFF735
:10156000CDFC411B03200229F6D997E0706B0421C2
:1015700001437163706B012188437063FFF7BEFC08
:101580000546706B8007A9D5FFF7B8FC411B032007
:101590000229F6D982E0306A039988433062306AC2
:1015A000042188433062FFF7A9FC0546306A8007B2
:1015B0001CD5FFF7A3FC411B0320B942F6D96DE00F
:1015C000306A042101433162306A03990843306272
:1015D000FFF794FC0546306A800707D4FFF78EFCBE
:1015E000401BB842F7D9032007B0F0BD029800288D
:1015F000059C00D0B9E6F06901998843F061B4E632
:10160000010432688A43326080043168814331606A
:10161000FFF774FC0546059C3068384200D17FE630
:10162000FFF76CFC411B03206429F5D936E08104E7
:1016300032680A4332600104306808433060FFF7C3
:101640005DFC05463068384200D069E6FFF756FC7D
:10165000401B6428F6D9032007B0F0BDF06A0F21C3
:101660008843059AD16A0143F1623D200004716804
:101670008143906A0843516A014371603068204396
:101680003060FFF73BFC04463068384200D048E742
:10169000FFF734FC011B03200229F5D907B0F0BD88
:1016A000001002400070004088130000401E010E30
:1016B00001D0012070470749074A50600748036876
:1016C0000B40032189075918016000209060072111
:1016D00011607047FFFFFF0010E000E020ED00E028
:1016E0007047704770470000F0B589B00368DE6945
:1016F0001A682021089205910A4051425141012760
:10170000FD022C462F3407963440203C661EB4411F
:101710000C439E6860D002A98CC1069002465832E4
:1017200001950F35079F2F42089807D0E3490140E4
:10173000012334461C40611800D097E01023014675
:1017400019404C424C413D46394619404F424F41A9
:101750000698016E01290498014643D139460029B3
:10176000014642D0002943D02F46012399050E405F
:1017700074427441E9020146039A00D521460029CA
:10178000069800D1F0E08021089A11404C424C416B
:101790003906049900D52146002900D182E140256F
:1017A000089929404C424C41790600D5049404998B
:1017B00000290FD1EFF3108183F3108802681368BA
:1017C000AB43136081F3108800218166059981671E
:1017D00000F0C2FA09B0F0BD416E0029FAD0884786
:1017E00009B0F0BD00290146BCD121460029BBD17A
:1017F000039803628068400600D5BBE054881088D7
:101800005288002A0699E5D0A042E3D00894EFF36D
:101810001084012282F3108809256D010E68376853
:10182000AF43376084F31088EFF3108482F310889D
:101830000D68AE689643AE6084F31088059CCC6753
:1018400000244C660C66EFF3108482F310880A685B
:1018500015689D43156084F31088089A801A82B237
:1018600008461146FFF73CFF09B0F0BD19020140E0
:101870004E424E41F9070498014600D031460029F6
:10188000039D03D12B62916A1943916266426641BE
:10189000B907014600D53146002905D10221296248
:1018A000916A04260E4396626642664179070146B4
:1018B00000D53146002905D104212962916A02260A
:1018C0000E43966202990C4366426641390704460C
:1018D00000D53446002C04D108212962946A0C43B7
:1018E00094629906089E0E407442744101990F4219
:1018F000069E0CD020463C4600280BD12962916AF6
:10190000059801439162916A002907D162E73C463C
:101910000028F3D0916A002900D15BE717460598AB
:10192000214601400298444244410029049800D0D5
:10193000204600283C4608D1716E002905D030466B
:101940001C46884723463C463568A16A28220A403F
:10195000A9684020014089185CD13046FFF7C2FEDB
:101960000020A06209B0F0BD19051162FFF7B9FEB1
:1019700009B0F0BD1746069E316F0868426894B200
:10198000002C00D126E73888844200D322E73C4669
:101990007A803A468969202934D0EFF310810120FA
:1019A00080F31088474A2032346825681540256046
:1019B00081F31088EFF3108180F310883268946807
:1019C0008443946081F31088EFF3108180F31088D2
:1019D000326894684025AC43946081F3108805997F
:1019E000F16700213166EFF3108180F310883068D1
:1019F00002689A43026081F31088306FFFF74EF956
:101A00003A4638885188401A81B23046FFF768FE5E
:101A100009B0F0BDEFF3108183F310880922520161
:101A20001F4633681C6894431C6081F31088EFF3F1
:101A3000108187F31088326893683D46BB439360FA
:101A400081F31088316E01290AD1EFF3108185F3FB
:101A50001088326813681024A343136081F3108840
:101A60000599F16700213166716631688968490618
:101A70001FD5EFF3108185F3108832689368834394
:101A8000936081F31088306F002812D00C494163B5
:101A9000FFF723F9002800D19CE6306F416B88479F
:101AA00009B0F0BD816E002900D193E6884709B0E6
:101AB000F0BD3046FFF716FE09B0F0BD200100046E
:101AC0003F1E0008DFFEFFFFF0B583B0002841D0C5
:101AD000044607467437806F002804D10020387010
:101AE000204600F057F82420A067206801680125EF
:101AF000A9430160204600F04FFA012827D0606A10
:101B0000002802D0204600F031F90920C0022168E7
:101B10004A6882434A6088682A229043886008683D
:101B20000126304308600025FD60FFF7E7F9034612
:101B300020680168090713D5154800907105002237
:101B40002046029300F0BCFA002807D0032528465F
:101B500003B0F0BD0125284603B0F0BD2068029B0C
:101B6000006840070CD50A480090B10500222046C5
:101B700000F0A6FA002803D00325284603B0F0BDE4
:101B80002020A067E0673D702566284603B0F0BDC1
:101B9000FFFFFF01B0B586B000686C49884201D0F4
:101BA00006B0B0BD15484168012205929303194360
:101BB00041604168194000910099510402680A434C
:101BC0000260006808400090002403940220029004
:101BD000032004904002019000980920C00601A94A
:101BE000FFF7ACF81B25284621462246FFF7E4F90B
:101BF0002846FFF7D5F906B0B0BDC0461410024024
:101C0000F0B584B0C36F0227202B11D10123002926
:101C100018D0002A16D00124250383680395AB420F
:101C20000AD1CB0708D00369002B05D1234609E070
:101C30003B46184604B0F0BD054658352B7F012BB6
:101C40003B4602D1184604B0F0BD002303662C7752
:101C500007687F683F0210D5EFF31087029784F37F
:101C60001088A6060196066800963768019E3743DD
:101C7000009E3760029F87F310886A802A80416542
:101C800043668168002907D0039A914209D101690E
:101C9000002908D1194907E00169002903D07F21F3
:101CA00002E0AB8001E0FF21A980AB622221C16785
:101CB000EFF3108184F310880268976827439760D8
:101CC00081F310888168039A914202D10169002949
:101CD00011D00C492B774166EFF3108184F3108803
:101CE00009225201006804681443046081F31088DB
:101CF000184604B0F0BD0249ECE7C046FF01000001
:101D0000551E0008F51E0008B0B50068E449884279
:101D100000D0B0BD0E4C2578002D06D0A0780D283F
:101D20000AD10120000220800AE0201D6421FEF774
:101D30006FFAA0780D28F4D061190871681C207022
:101D4000A11C04480122FFF75BFFB0BD0038014031
:101D500074010020DC0100207047FEE7FEE77047B9
:101D6000704780B5FFF7CEF880BD7047B0B5416AC7
:101D7000CA070CD18A0714D44A071CD40A0724D4F2
:101D8000CA062CD48A0634D44A063CD44CE001223C
:101D9000520403685C689443826A22435A608A074B
:101DA000EAD50122120403685C689443C26A2243A4
:101DB0005A604A07E2D50122920403685C689443A2
:101DC000026B22435A600A07DAD50122D203036864
:101DD0005C689443426B22435A60CA06D2D5012202
:101DE000120303689C689443826B22439A608A06BC
:101DF000CAD50122520303689C689443C26B2243F4
:101E00009A604A0610D501221305026854689C4363
:101E1000056C2C4354609D4206D103235B05546836
:101E20009C43436C23435360090607D50121C90431
:101E3000026853688B43806C18435060B0BD80B516
:101E4000406A0146523100220A8152214252FFF774
:101E500049FC80BD70B50268014658318B88C46F5B
:101E6000222C0CD1928C1A40436D1A804A88521E43
:101E70004A809A1C42654A88002A05D070BD906944
:101E800008210143916170BDEFF31083012282F3B9
:101E900010880924640105682E68A6432E6083F328
:101EA0001088EFF3108382F310880468A5689543C7
:101EB000A56083F310882023C36700234366046E64
:101EC000012C14D10366EFF3108382F310880468A9
:101ED000256810229543256083F310880368DC6928
:101EE000E40600D51A620988FFF7FAFB70BDFFF718
:101EF0000BFF70BD70B50268014658318B88C46F06
:101F0000222C0DD1928C1A40436D1A704A88521EB1
:101F10004A80426D521C42654A88002A05D070BD35
:101F2000906908210143916170BDEFF31083012294
:101F300082F310880924640105682E68A6432E6088
:101F400083F31088EFF3108382F310880468A56888
:101F50009543A56083F310882023C367002343665D
:101F6000046E012C14D10366EFF3108382F3108802
:101F70000468256810229543256083F31088036860
:101F8000DC69E40600D51A620988FFF7A9FB70BD79
:101F9000FFF7BAFE70BD0000B0B5044600680168E6
:101FA0003D4A0A40A16823690B4365691D431543F7
:101FB000E1690D4305600322120343689343E2681D
:101FC0001A434260A269236A13430B2212028568F6
:101FD00095431D438560314A904209D0304A904272
:101FE00008D1304800688007000F2FA2135802E084
:101FF000002300E010230125EA032F4891420FD16E
:10200000082B43D87B441B795B009F44043F203F4F
:10201000193F3F3F1F00FFF71BF9002817D113E0BE
:10202000082B33D87B441B795B009F44042F242F5B
:102030001D2F2F2F2300FFF70BF900281BD117E0CE
:10204000FFF714F9002802D100251FE010464000D8
:1020500061684A08101800F075F91849014015D058
:102060000007400F08430EE0FFF700F9002802D1F7
:1020700000250BE0104661684A08101800F062F96C
:1020800080B2102802D32168C86000250020606655
:10209000A0662846B0BDC046F369FFFF004400407B
:1020A0000038014030100240000000000400000031
:1020B000080000000200000000127A00F0FF00009B
:1020C000F0B587B016460F4605460468E169394009
:1020D000C91B4A424A410020B24224D106930495CA
:1020E0002A4674320C9D002D1FD0691C43D1E16932
:1020F0003940C91B4A424A41B24214D1E1693940D0
:10210000C91B4A424A41B2420DD1E1693940C91B5B
:102110004A424A41B24206D1E1693940C91B4A42AA
:102120004A41B242E3D007B0F0BD0392FEF7E6FEAB
:10213000049CEFF31081012080F310880D225201DE
:1021400023681D6895431D6081F31088EFF31081AB
:1021500080F31088226893688343936081F310882A
:102160002020A0677C340399002008702020206084
:10217000032007B0F0BD0392029001200190C0023D
:102180000590049C06E0C0693840C01B41424141B3
:10219000B1422DD1FEF7B2FE0699401AA842C8D826
:1021A000206801684907EED5C169059A1142EAD055
:1021B00005990162EFF31080019D85F310880D21D0
:1021C0004901226813688B43136080F31088EFF392
:1021D000108085F3108821688A68AA438A6080F39A
:1021E00010882020A067E06703990C460C34BBE7F9
:1021F000029807B0F0BD000080B54D48FFF774FAB3
:1022000080BDC04696B0FEF787FE00240E940D9464
:10221000119410940F940C940B9415940520C00401
:1022200014901394022512950A9510200E90012007
:102230000D9005940494039402940AA8FFF73CF8C7
:10224000002803D0EFF3108072B6FEE709940894DB
:1022500007950720069006A801252946FEF756FF98
:10226000002803D0EFF3108072B6FEE703940195C7
:1022700001A8FEF7BDFE002803D0EFF3108072B670
:10228000FEE70E940D94680427490A6802430A6029
:102290000A68024001920198E8040A6802430A6051
:1022A0000968014001910198032007021F4839463F
:1022B0002246FEF71BFE0C94092041040B910A955F
:1022C000C0060AAE3146FEF739FD0D940C940B950D
:1022D0000A9716483146FEF731FD15480C214B226E
:1022E000D201144B036042608460C46004614161A8
:1022F0008461C46104624462FFF7E6FB002803D0F6
:10230000EFF3108072B6FEE70B48811C08480122EB
:10231000FFF776FC09A42046FDF746FF7D208000EC
:10232000FEF7FCFCF7E7C046141002400008004826
:10233000DC010020003801407401002048656C6C0D
:102340006F0D000043088B421AD3002203098B4211
:1023500079D3030A8B425ED3030B8B4242D3030C27
:102360008B4227D30902FF2212BA030C8B4202D3FD
:102370001212090203D0030B8B4233D31AE0D3E0CD
:10238000411A8041401C704703460B4371D44308F7
:102390008B42F5D3002203098B4254D3030A8B42AC
:1023A00039D3030B8B421DD3030C8B4202D39446CB
:1023B0006EE0090AC30B8B4201D3CB03C01A524112
:1023C000830B8B4201D38B03C01A5241430B8B42C8
:1023D00001D34B03C01A5241030B8B4201D30B03B1
:1023E000C01A5241C30A8B4201D3CB02C01A5241D8
:1023F000830A8B4201D38B02C01A5241430A8B429B
:1024000001D34B02C01A5241030A8B4201D30B0283
:10241000C01A5241CDD2C3098B4201D3CB01C01A9D
:10242000524183098B4201D38B01C01A52414309A7
:102430008B4201D34B01C01A524103098B4201D395
:102440000B01C01A5241C3088B4201D3CB00C01A02
:10245000524183088B4201D38B00C01A524143087A
:102460008B4201D34B00C01A5241411A5241100015
:102470007047CA0F00D04942031000D34042534076
:1024800000229C4603098B422DD3030A8B4212D3B0
:102490008901FC2212BA030A8B420CD389019211E2
:1024A0008B4208D3890192118B4204D3890137D022
:1024B000921100E08909C3098B4201D3CB01C01AF4
:1024C000524183098B4201D38B01C01A5241430907
:1024D0008B4201D34B01C01A524103098B4201D3F5
:1024E0000B01C01A5241C3088B4201D3CB00C01A62
:1024F000524183088B4201D38B00C01A5241D9D27A
:1025000043088B4201D34B00C01A5241411A00D2FA
:1025100001465241104663465B1000D3404270476B
:1025200063465B1000D3404201B50021004201D058
:10253000C9430846C046C04602BD10B58A68002A95
:1025400003DC0022FDF76AFE10BD521E8A604A6855
:10255000C0B2531C4B60107010BD3A7474003A74D2
:1025600074003A74740000000000000000000102D2
:102570000304060708090000000001020304020327
:102580000405060708090A0B0C0D0E0F10100102B6
:10259000030405060708090A0B0C0D0E0F100000B6
:1025A000C0250008000000201800000000010008FD
:1025B000D825000818000020500800001C01000861
:1025C000000000000000000000000000010000000A
:0825D0000400000000127A0073
:04000005080000BD32
:00000001FF
